{
	"StorageVictim_PreAudit.sol": {
		"StorageVictim": {
			"abi": [
				{
					"constant": false,
					"inputs": [
						{
							"name": "_amount",
							"type": "uint256"
						}
					],
					"name": "store",
					"outputs": [],
					"payable": false,
					"stateMutability": "nonpayable",
					"type": "function"
				},
				{
					"constant": true,
					"inputs": [],
					"name": "getOwner",
					"outputs": [
						{
							"name": "",
							"type": "address"
						}
					],
					"payable": false,
					"stateMutability": "view",
					"type": "function"
				},
				{
					"constant": true,
					"inputs": [],
					"name": "getStore",
					"outputs": [
						{
							"name": "",
							"type": "address"
						},
						{
							"name": "",
							"type": "uint256"
						}
					],
					"payable": false,
					"stateMutability": "view",
					"type": "function"
				},
				{
					"inputs": [],
					"payable": false,
					"stateMutability": "nonpayable",
					"type": "constructor"
				}
			],
			"devdoc": {
				"methods": {}
			},
			"evm": {
				"assembly": "    /* \"StorageVictim_PreAudit.sol\":28:842  contract StorageVictim {\r... */\n  mstore(0x40, 0x80)\n    /* \"StorageVictim_PreAudit.sol\":204:276  function StorageVictim() public {\r... */\n  callvalue\n    /* \"--CODEGEN--\":8:17   */\n  dup1\n    /* \"--CODEGEN--\":5:7   */\n  iszero\n  tag_1\n  jumpi\n    /* \"--CODEGEN--\":30:31   */\n  0x0\n    /* \"--CODEGEN--\":27:28   */\n  dup1\n    /* \"--CODEGEN--\":20:32   */\n  revert\n    /* \"--CODEGEN--\":5:7   */\ntag_1:\n    /* \"StorageVictim_PreAudit.sol\":204:276  function StorageVictim() public {\r... */\n  pop\n    /* \"StorageVictim_PreAudit.sol\":259:269  msg.sender */\n  caller\n    /* \"StorageVictim_PreAudit.sol\":251:256  owner */\n  0x0\n  dup1\n    /* \"StorageVictim_PreAudit.sol\":251:269  owner = msg.sender */\n  0x100\n  exp\n  dup2\n  sload\n  dup2\n  0xffffffffffffffffffffffffffffffffffffffff\n  mul\n  not\n  and\n  swap1\n  dup4\n  0xffffffffffffffffffffffffffffffffffffffff\n  and\n  mul\n  or\n  swap1\n  sstore\n  pop\n    /* \"StorageVictim_PreAudit.sol\":28:842  contract StorageVictim {\r... */\n  dataSize(sub_0)\n  dup1\n  dataOffset(sub_0)\n  0x0\n  codecopy\n  0x0\n  return\nstop\n\nsub_0: assembly {\n        /* \"StorageVictim_PreAudit.sol\":28:842  contract StorageVictim {\r... */\n      mstore(0x40, 0x80)\n      jumpi(tag_1, lt(calldatasize, 0x4))\n      calldataload(0x0)\n      0x100000000000000000000000000000000000000000000000000000000\n      swap1\n      div\n      0xffffffff\n      and\n      dup1\n      0x6057361d\n      eq\n      tag_2\n      jumpi\n      dup1\n      0x893d20e8\n      eq\n      tag_3\n      jumpi\n      dup1\n      0xc2722ecc\n      eq\n      tag_4\n      jumpi\n    tag_1:\n      0x0\n      dup1\n      revert\n        /* \"StorageVictim_PreAudit.sol\":283:572  function store(uint _amount) public {\r... */\n    tag_2:\n      callvalue\n        /* \"--CODEGEN--\":8:17   */\n      dup1\n        /* \"--CODEGEN--\":5:7   */\n      iszero\n      tag_5\n      jumpi\n        /* \"--CODEGEN--\":30:31   */\n      0x0\n        /* \"--CODEGEN--\":27:28   */\n      dup1\n        /* \"--CODEGEN--\":20:32   */\n      revert\n        /* \"--CODEGEN--\":5:7   */\n    tag_5:\n        /* \"StorageVictim_PreAudit.sol\":283:572  function store(uint _amount) public {\r... */\n      pop\n      tag_6\n      0x4\n      dup1\n      calldatasize\n      sub\n      dup2\n      add\n      swap1\n      dup1\n      dup1\n      calldataload\n      swap1\n      0x20\n      add\n      swap1\n      swap3\n      swap2\n      swap1\n      pop\n      pop\n      pop\n      jump(tag_7)\n    tag_6:\n      stop\n        /* \"StorageVictim_PreAudit.sol\":751:839  function getOwner() public view returns (address) {\r... */\n    tag_3:\n      callvalue\n        /* \"--CODEGEN--\":8:17   */\n      dup1\n        /* \"--CODEGEN--\":5:7   */\n      iszero\n      tag_8\n      jumpi\n        /* \"--CODEGEN--\":30:31   */\n      0x0\n        /* \"--CODEGEN--\":27:28   */\n      dup1\n        /* \"--CODEGEN--\":20:32   */\n      revert\n        /* \"--CODEGEN--\":5:7   */\n    tag_8:\n        /* \"StorageVictim_PreAudit.sol\":751:839  function getOwner() public view returns (address) {\r... */\n      pop\n      tag_9\n      jump(tag_10)\n    tag_9:\n      mload(0x40)\n      dup1\n      dup3\n      0xffffffffffffffffffffffffffffffffffffffff\n      and\n      0xffffffffffffffffffffffffffffffffffffffff\n      and\n      dup2\n      mstore\n      0x20\n      add\n      swap2\n      pop\n      pop\n      mload(0x40)\n      dup1\n      swap2\n      sub\n      swap1\n      return\n        /* \"StorageVictim_PreAudit.sol\":577:741  function getStore() public view returns (address, uint) {\r... */\n    tag_4:\n      callvalue\n        /* \"--CODEGEN--\":8:17   */\n      dup1\n        /* \"--CODEGEN--\":5:7   */\n      iszero\n      tag_11\n      jumpi\n        /* \"--CODEGEN--\":30:31   */\n      0x0\n        /* \"--CODEGEN--\":27:28   */\n      dup1\n        /* \"--CODEGEN--\":20:32   */\n      revert\n        /* \"--CODEGEN--\":5:7   */\n    tag_11:\n        /* \"StorageVictim_PreAudit.sol\":577:741  function getStore() public view returns (address, uint) {\r... */\n      pop\n      tag_12\n      jump(tag_13)\n    tag_12:\n      mload(0x40)\n      dup1\n      dup4\n      0xffffffffffffffffffffffffffffffffffffffff\n      and\n      0xffffffffffffffffffffffffffffffffffffffff\n      and\n      dup2\n      mstore\n      0x20\n      add\n      dup3\n      dup2\n      mstore\n      0x20\n      add\n      swap3\n      pop\n      pop\n      pop\n      mload(0x40)\n      dup1\n      swap2\n      sub\n      swap1\n      return\n        /* \"StorageVictim_PreAudit.sol\":283:572  function store(uint _amount) public {\r... */\n    tag_7:\n        /* \"StorageVictim_PreAudit.sol\":435:446  Storage str */\n      0x0\n        /* \"StorageVictim_PreAudit.sol\":476:486  msg.sender */\n      caller\n        /* \"StorageVictim_PreAudit.sol\":465:468  str */\n      dup2\n        /* \"StorageVictim_PreAudit.sol\":465:473  str.user */\n      0x0\n      add\n      0x0\n        /* \"StorageVictim_PreAudit.sol\":465:486  str.user = msg.sender */\n      0x100\n      exp\n      dup2\n      sload\n      dup2\n      0xffffffffffffffffffffffffffffffffffffffff\n      mul\n      not\n      and\n      swap1\n      dup4\n      0xffffffffffffffffffffffffffffffffffffffff\n      and\n      mul\n      or\n      swap1\n      sstore\n      pop\n        /* \"StorageVictim_PreAudit.sol\":518:525  _amount */\n      dup2\n        /* \"StorageVictim_PreAudit.sol\":505:508  str */\n      dup2\n        /* \"StorageVictim_PreAudit.sol\":505:515  str.amount */\n      0x1\n      add\n        /* \"StorageVictim_PreAudit.sol\":505:525  str.amount = _amount */\n      dup2\n      swap1\n      sstore\n      pop\n        /* \"StorageVictim_PreAudit.sol\":560:563  str */\n      dup1\n        /* \"StorageVictim_PreAudit.sol\":537:545  storages */\n      0x1\n        /* \"StorageVictim_PreAudit.sol\":537:557  storages[msg.sender] */\n      0x0\n        /* \"StorageVictim_PreAudit.sol\":546:556  msg.sender */\n      caller\n        /* \"StorageVictim_PreAudit.sol\":537:557  storages[msg.sender] */\n      0xffffffffffffffffffffffffffffffffffffffff\n      and\n      0xffffffffffffffffffffffffffffffffffffffff\n      and\n      dup2\n      mstore\n      0x20\n      add\n      swap1\n      dup2\n      mstore\n      0x20\n      add\n      0x0\n      keccak256\n        /* \"StorageVictim_PreAudit.sol\":537:563  storages[msg.sender] = str */\n      0x0\n      dup3\n      add\n      0x0\n      swap1\n      sload\n      swap1\n      0x100\n      exp\n      swap1\n      div\n      0xffffffffffffffffffffffffffffffffffffffff\n      and\n      dup2\n      0x0\n      add\n      exp(0x100, 0x0)\n      dup2\n      sload\n      dup2\n      0xffffffffffffffffffffffffffffffffffffffff\n      mul\n      not\n      and\n      swap1\n      dup4\n      0xffffffffffffffffffffffffffffffffffffffff\n      and\n      mul\n      or\n      swap1\n      sstore\n      pop\n      0x1\n      dup3\n      add\n      sload\n      dup2\n      0x1\n      add\n      sstore\n      swap1\n      pop\n      pop\n        /* \"StorageVictim_PreAudit.sol\":283:572  function store(uint _amount) public {\r... */\n      pop\n      pop\n      jump\t// out\n        /* \"StorageVictim_PreAudit.sol\":751:839  function getOwner() public view returns (address) {\r... */\n    tag_10:\n        /* \"StorageVictim_PreAudit.sol\":792:799  address */\n      0x0\n        /* \"StorageVictim_PreAudit.sol\":827:832  owner */\n      dup1\n      0x0\n      swap1\n      sload\n      swap1\n      0x100\n      exp\n      swap1\n      div\n      0xffffffffffffffffffffffffffffffffffffffff\n      and\n        /* \"StorageVictim_PreAudit.sol\":820:832  return owner */\n      swap1\n      pop\n        /* \"StorageVictim_PreAudit.sol\":751:839  function getOwner() public view returns (address) {\r... */\n      swap1\n      jump\t// out\n        /* \"StorageVictim_PreAudit.sol\":577:741  function getStore() public view returns (address, uint) {\r... */\n    tag_13:\n        /* \"StorageVictim_PreAudit.sol\":618:625  address */\n      0x0\n        /* \"StorageVictim_PreAudit.sol\":627:631  uint */\n      dup1\n        /* \"StorageVictim_PreAudit.sol\":652:663  Storage str */\n      0x0\n        /* \"StorageVictim_PreAudit.sol\":666:674  storages */\n      0x1\n        /* \"StorageVictim_PreAudit.sol\":666:686  storages[msg.sender] */\n      0x0\n        /* \"StorageVictim_PreAudit.sol\":675:685  msg.sender */\n      caller\n        /* \"StorageVictim_PreAudit.sol\":666:686  storages[msg.sender] */\n      0xffffffffffffffffffffffffffffffffffffffff\n      and\n      0xffffffffffffffffffffffffffffffffffffffff\n      and\n      dup2\n      mstore\n      0x20\n      add\n      swap1\n      dup2\n      mstore\n      0x20\n      add\n      0x0\n      keccak256\n        /* \"StorageVictim_PreAudit.sol\":652:686  Storage str = storages[msg.sender] */\n      swap1\n      pop\n        /* \"StorageVictim_PreAudit.sol\":713:716  str */\n      dup1\n        /* \"StorageVictim_PreAudit.sol\":713:721  str.user */\n      0x0\n      add\n      0x0\n      swap1\n      sload\n      swap1\n      0x100\n      exp\n      swap1\n      div\n      0xffffffffffffffffffffffffffffffffffffffff\n      and\n        /* \"StorageVictim_PreAudit.sol\":723:726  str */\n      dup2\n        /* \"StorageVictim_PreAudit.sol\":723:733  str.amount */\n      0x1\n      add\n      sload\n        /* \"StorageVictim_PreAudit.sol\":705:734  return (str.user, str.amount) */\n      swap3\n      pop\n      swap3\n      pop\n        /* \"StorageVictim_PreAudit.sol\":577:741  function getStore() public view returns (address, uint) {\r... */\n      pop\n      swap1\n      swap2\n      jump\t// out\n\n    auxdata: 0xa165627a7a723058209d41917327f4945694d847e07fa4961d5b6b4478d931b9ffe9bc8baec5b1f04c0029\n}\n",
				"bytecode": {
					"linkReferences": {},
					"object": "608060405234801561001057600080fd5b50336000806101000a81548173ffffffffffffffffffffffffffffffffffffffff021916908373ffffffffffffffffffffffffffffffffffffffff160217905550610312806100606000396000f300608060405260043610610057576000357c0100000000000000000000000000000000000000000000000000000000900463ffffffff1680636057361d1461005c578063893d20e814610089578063c2722ecc146100e0575b600080fd5b34801561006857600080fd5b506100876004803603810190808035906020019092919050505061013e565b005b34801561009557600080fd5b5061009e610244565b604051808273ffffffffffffffffffffffffffffffffffffffff1673ffffffffffffffffffffffffffffffffffffffff16815260200191505060405180910390f35b3480156100ec57600080fd5b506100f561026d565b604051808373ffffffffffffffffffffffffffffffffffffffff1673ffffffffffffffffffffffffffffffffffffffff1681526020018281526020019250505060405180910390f35b6000338160000160006101000a81548173ffffffffffffffffffffffffffffffffffffffff021916908373ffffffffffffffffffffffffffffffffffffffff16021790555081816001018190555080600160003373ffffffffffffffffffffffffffffffffffffffff1673ffffffffffffffffffffffffffffffffffffffff1681526020019081526020016000206000820160009054906101000a900473ffffffffffffffffffffffffffffffffffffffff168160000160006101000a81548173ffffffffffffffffffffffffffffffffffffffff021916908373ffffffffffffffffffffffffffffffffffffffff160217905550600182015481600101559050505050565b60008060009054906101000a900473ffffffffffffffffffffffffffffffffffffffff16905090565b6000806000600160003373ffffffffffffffffffffffffffffffffffffffff1673ffffffffffffffffffffffffffffffffffffffff16815260200190815260200160002090508060000160009054906101000a900473ffffffffffffffffffffffffffffffffffffffff168160010154925092505090915600a165627a7a723058209d41917327f4945694d847e07fa4961d5b6b4478d931b9ffe9bc8baec5b1f04c0029",
					"opcodes": "PUSH1 0x80 PUSH1 0x40 MSTORE CALLVALUE DUP1 ISZERO PUSH2 0x10 JUMPI PUSH1 0x0 DUP1 REVERT JUMPDEST POP CALLER PUSH1 0x0 DUP1 PUSH2 0x100 EXP DUP2 SLOAD DUP2 PUSH20 0xFFFFFFFFFFFFFFFFFFFFFFFFFFFFFFFFFFFFFFFF MUL NOT AND SWAP1 DUP4 PUSH20 0xFFFFFFFFFFFFFFFFFFFFFFFFFFFFFFFFFFFFFFFF AND MUL OR SWAP1 SSTORE POP PUSH2 0x312 DUP1 PUSH2 0x60 PUSH1 0x0 CODECOPY PUSH1 0x0 RETURN STOP PUSH1 0x80 PUSH1 0x40 MSTORE PUSH1 0x4 CALLDATASIZE LT PUSH2 0x57 JUMPI PUSH1 0x0 CALLDATALOAD PUSH29 0x100000000000000000000000000000000000000000000000000000000 SWAP1 DIV PUSH4 0xFFFFFFFF AND DUP1 PUSH4 0x6057361D EQ PUSH2 0x5C JUMPI DUP1 PUSH4 0x893D20E8 EQ PUSH2 0x89 JUMPI DUP1 PUSH4 0xC2722ECC EQ PUSH2 0xE0 JUMPI JUMPDEST PUSH1 0x0 DUP1 REVERT JUMPDEST CALLVALUE DUP1 ISZERO PUSH2 0x68 JUMPI PUSH1 0x0 DUP1 REVERT JUMPDEST POP PUSH2 0x87 PUSH1 0x4 DUP1 CALLDATASIZE SUB DUP2 ADD SWAP1 DUP1 DUP1 CALLDATALOAD SWAP1 PUSH1 0x20 ADD SWAP1 SWAP3 SWAP2 SWAP1 POP POP POP PUSH2 0x13E JUMP JUMPDEST STOP JUMPDEST CALLVALUE DUP1 ISZERO PUSH2 0x95 JUMPI PUSH1 0x0 DUP1 REVERT JUMPDEST POP PUSH2 0x9E PUSH2 0x244 JUMP JUMPDEST PUSH1 0x40 MLOAD DUP1 DUP3 PUSH20 0xFFFFFFFFFFFFFFFFFFFFFFFFFFFFFFFFFFFFFFFF AND PUSH20 0xFFFFFFFFFFFFFFFFFFFFFFFFFFFFFFFFFFFFFFFF AND DUP2 MSTORE PUSH1 0x20 ADD SWAP2 POP POP PUSH1 0x40 MLOAD DUP1 SWAP2 SUB SWAP1 RETURN JUMPDEST CALLVALUE DUP1 ISZERO PUSH2 0xEC JUMPI PUSH1 0x0 DUP1 REVERT JUMPDEST POP PUSH2 0xF5 PUSH2 0x26D JUMP JUMPDEST PUSH1 0x40 MLOAD DUP1 DUP4 PUSH20 0xFFFFFFFFFFFFFFFFFFFFFFFFFFFFFFFFFFFFFFFF AND PUSH20 0xFFFFFFFFFFFFFFFFFFFFFFFFFFFFFFFFFFFFFFFF AND DUP2 MSTORE PUSH1 0x20 ADD DUP3 DUP2 MSTORE PUSH1 0x20 ADD SWAP3 POP POP POP PUSH1 0x40 MLOAD DUP1 SWAP2 SUB SWAP1 RETURN JUMPDEST PUSH1 0x0 CALLER DUP2 PUSH1 0x0 ADD PUSH1 0x0 PUSH2 0x100 EXP DUP2 SLOAD DUP2 PUSH20 0xFFFFFFFFFFFFFFFFFFFFFFFFFFFFFFFFFFFFFFFF MUL NOT AND SWAP1 DUP4 PUSH20 0xFFFFFFFFFFFFFFFFFFFFFFFFFFFFFFFFFFFFFFFF AND MUL OR SWAP1 SSTORE POP DUP2 DUP2 PUSH1 0x1 ADD DUP2 SWAP1 SSTORE POP DUP1 PUSH1 0x1 PUSH1 0x0 CALLER PUSH20 0xFFFFFFFFFFFFFFFFFFFFFFFFFFFFFFFFFFFFFFFF AND PUSH20 0xFFFFFFFFFFFFFFFFFFFFFFFFFFFFFFFFFFFFFFFF AND DUP2 MSTORE PUSH1 0x20 ADD SWAP1 DUP2 MSTORE PUSH1 0x20 ADD PUSH1 0x0 KECCAK256 PUSH1 0x0 DUP3 ADD PUSH1 0x0 SWAP1 SLOAD SWAP1 PUSH2 0x100 EXP SWAP1 DIV PUSH20 0xFFFFFFFFFFFFFFFFFFFFFFFFFFFFFFFFFFFFFFFF AND DUP2 PUSH1 0x0 ADD PUSH1 0x0 PUSH2 0x100 EXP DUP2 SLOAD DUP2 PUSH20 0xFFFFFFFFFFFFFFFFFFFFFFFFFFFFFFFFFFFFFFFF MUL NOT AND SWAP1 DUP4 PUSH20 0xFFFFFFFFFFFFFFFFFFFFFFFFFFFFFFFFFFFFFFFF AND MUL OR SWAP1 SSTORE POP PUSH1 0x1 DUP3 ADD SLOAD DUP2 PUSH1 0x1 ADD SSTORE SWAP1 POP POP POP POP JUMP JUMPDEST PUSH1 0x0 DUP1 PUSH1 0x0 SWAP1 SLOAD SWAP1 PUSH2 0x100 EXP SWAP1 DIV PUSH20 0xFFFFFFFFFFFFFFFFFFFFFFFFFFFFFFFFFFFFFFFF AND SWAP1 POP SWAP1 JUMP JUMPDEST PUSH1 0x0 DUP1 PUSH1 0x0 PUSH1 0x1 PUSH1 0x0 CALLER PUSH20 0xFFFFFFFFFFFFFFFFFFFFFFFFFFFFFFFFFFFFFFFF AND PUSH20 0xFFFFFFFFFFFFFFFFFFFFFFFFFFFFFFFFFFFFFFFF AND DUP2 MSTORE PUSH1 0x20 ADD SWAP1 DUP2 MSTORE PUSH1 0x20 ADD PUSH1 0x0 KECCAK256 SWAP1 POP DUP1 PUSH1 0x0 ADD PUSH1 0x0 SWAP1 SLOAD SWAP1 PUSH2 0x100 EXP SWAP1 DIV PUSH20 0xFFFFFFFFFFFFFFFFFFFFFFFFFFFFFFFFFFFFFFFF AND DUP2 PUSH1 0x1 ADD SLOAD SWAP3 POP SWAP3 POP POP SWAP1 SWAP2 JUMP STOP LOG1 PUSH6 0x627A7A723058 KECCAK256 SWAP14 COINBASE SWAP2 PUSH20 0x27F4945694D847E07FA4961D5B6B4478D931B9FF 0xe9 0xbc DUP12 0xae 0xc5 0xb1 CREATE 0x4c STOP 0x29 "
				},
				"gasEstimates": {
					"creation": {
						"codeDepositCost": "157200",
						"executionCost": "20468",
						"totalCost": "177668"
					},
					"external": {
						"getOwner()": "472",
						"getStore()": "842",
						"store(uint256)": "81323"
					}
				},
				"methodIdentifiers": {
					"getOwner()": "893d20e8",
					"getStore()": "c2722ecc",
					"store(uint256)": "6057361d"
				}
			},
			"userdoc": {
				"methods": {}
			}
		}
	}
}